:03000000020DE707
:0C0DE700787FE4F6D8FD75814D020E2ED9
:0C0FE600758920758DFD759850D28E2203
:070FFD003098FDAF99C29886
:0110040022C9
:0F0FD7008F993099FD7F0A7E00120F11C2992267
:100F31008B1C8A1D891EAB1CAA1DA91E120D59FFEF
:100F41006010120FD77401251EF51EE4351DF51D25
:030F510080E42217
:100E73007F03120F77120F0D7F03120F77120F0DDF
:100E83007F03120F77120F0D7F02120F77120F0DD0
:100E93007F28120F77120F0D7F08120F77120F0D95
:100EA3007F01120F77120F0D7F0C120F77120F0DA8
:0C0EB3007F80120F777F057E00020F1178
:051005007F01020F77DE
:100FB3008FA0D2A2C2A0C2A17F017E00120F11C2D4
:020FC300A22268
:020F77008F08E1
:100F7900E4F5A0E50854F0C3135478FF120FB3E564
:0C0F890008540F3333335478FF020FB3C9
:100FC5008FA0D2A2D2A0C2A17F017E00120F11C2B2
:020FD500A22256
:020F95008F0BC0
:100F9700E4F5A0E50B54F0C3135478FF120FC5E531
:0C0FA7000B540F3333335478FF020FC596
:100F54008B088A09890AAB08AA09A90A120D59FF44
:100F64006010120F957401250AF50AE43509F50994
:030F740080E422F4
:040F0D007F057E00DE
:100F1100E4FDFCC3ED9FEC9E5015E4FBFA0BBB0016
:0F0F2100010ABA04F8BBFBF50DBD00010C80E41A
:010F3000229E
:05100A007FC0020F771A
:100C36005761746572204469737472696275746968
:100C46006F6E0053797374656D005363616E6E69E0
:100C56006E672E2E2E2E0054696D653D2564205339
:100C660065630050756C7365733D25640041626E63
:100C76006F726D616C20426561742052617465000B
:100C86004154004D73672073656E64696E672E2E3E
:100C96002E2E0041542B434D47463D310041542BE7
:100CA600434D47533D002B393139303735363830CF
:100CB600363039000A0D004D73672073656E742E49
:040CC6002E2E2E00A0
:0A0FF200C109C10AC10B0222000070
:100EBF00120E73120FE67BFF7A0C7936120F541253
:100ECF00100A7BFF7A0C7949120F547FC87E0012EB
:070EDF000F11120B5C80FBF8
:100B5C001210057BFF7A0C7950120F547F647E00C3
:100B6C00120F11E4F522F523C3E523941EE522644C
:100B7C00809480504720B50F0547E5477002054625
:100B8C007F0A7E00120F110523E523700205221245
:100B9C001005750BFF750C0C750D5D85220E8523EC
:100BAC000F7B007A00792412085C7B007A00792490
:100BBC00120F547FC87E00120F1180AC750BFF759D
:100BCC000C0C750D6985460E85470F7B007A0079F4
:100BDC002412085C7FC87E00120F111210057B00D6
:100BEC007A007924120F547FC87E00120F117FC82F
:100BFC007E00120F11D3E5479450E5469400500B3C
:100C0C00C3E5479441E54694005015750BFF750CF0
:100C1C000C750D737B007A00793412085C1200009D
:090C2C00E4F522F523F546F54735
:010C3500229C
:100CCA007BFF7A0C7986120F317F0D120FD77FC8FE
:100CDA007E00120F111210057BFF7A0C7989120F10
:100CEA00547BFF7A0C7999120F317F0D120FD77F3F
:100CFA00C87E00120F117BFF7A0C79A3120F317F85
:100D0A0022120FD77BFF7A0C79AC120F317F221295
:100D1A000FD77F0D120FD77FC87E00120F117B00ED
:100D2A007A007934120F317BFF7A0C79BA120F31BB
:100D3A007F1A120FD77FC87E00120F111210057B7F
:0F0D4A00FF7A0C79BD120F547FC87E00020F1183
:100DF300020EBFE493A3F8E493A34003F68001F249
:100E030008DFF48029E493A3F85407240CC8C33300
:100E1300C4540F4420C8834004F456800146F6DFCF
:100E2300E4800B0102040810204080900FF2E47E5E
:100E3300019360BCA3FF543F30E509541FFEE493C4
:100E4300A360010ECF54C025E060A840B8E493A38B
:100E5300FAE493A3F8E493A3C8C582C8CAC583CAB6
:100E6300F0A3C8C582C8CAC583CADFE9DEE780BE6E
:010FFC0000F4
:100D5900BB010689828A83E0225002E722BBFE0298
:090D6900E32289828A83E49322CB
:10080000E517240BF8E60517227808300702780B65
:10081000E475F001120DB1020D592000EB7F2ED2CC
:10082000008018EF540F2490D43440D4FF30040BD0
:10083000EF24BFB41A0050032461FFE518600215CD
:1008400018051BE51B7002051A30070D7808E475C2
:10085000F001120DB1EF020D9F020EE67403D207F4
:100860008003E4C207F5178B088A09890AE4F518A2
:10087000F51AF51BE51860077F2012083B80F57517
:1008800019FFC201C200C202C203C205C206C208E9
:10089000120809FF700D3007057F0012084CAF1BCE
:1008A000AE1A22B4255FC2D5C204120809FF24D0B3
:1008B000B40A00501A75F00A781830D50508B6FF4A
:1008C0000106C6A426F620D5047002D20380D924DE
:1008D000CFB41A00EF5004C2E5D204020A4CD20190
:1008E00080C6D20080C0D20280BCD2D580BAD205E8
:1008F00080B47F2012083B2002077401B518004025
:10090000F1120800FF12083B020874D208D20680D8
:1009100095120800FB120800FA120800F94A4B7001
:1009200006791D7A0B7BFF20022EE518602A7E00D7
:100930008E82758300120D7260060EEE651970F0DE
:10094000C2D5EBC0E0EAC0E0E9C0E0EE120A93D005
:10095000E0F9D0E0FAD0E0FB120D59FF60AAEBC03D
:10096000E0EAC0E0E9C0E012083BD0E02401F9D0A1
:10097000E03400FAD0E0FBE5190460DCD519D98039
:10098000877BFF7A0A798FD202809C791080027966
:1009900008C206C2088008D2D5790A8004790AC242
:1009A000D5E519047002F519E4FAFDFEFF120800FE
:1009B000FC7B08200113120800FD7B1030000A1296
:1009C0000800FE120800FF7B20EC3382D592D55040
:1009D00013C3E43000069FFFE49EFEE42001039D64
:1009E000FDE49CFCE4CBF8C201EC700CCFCECDCC86
:1009F000E824F8F870F38017C3EF33FFEE33FEED11
:100A000033FDEC33FCEB33FB994002FB0FD8E9EBF1
:100A1000300105F8D0E0C448B201C0E00AEC4D4E08
:100A20004F78207B0070C2EAB5190040BCC0E012CC
:100A30000A95D0F0D0E0200104C4C0E0C4B201C0E7
:100A4000F0120824D0F0D5F0EB020874120DC109A1
:100A50001153098B5808E24C08DE42098F4F099761
:0F0A60004409974908F743099D550981460981C3
:100A6F00450981470B3D5008E62D08EA2E090D2B4D
:100A7F0008EE23090B200B262A08A64800000905BB
:100A8F003F3F3F00790AA2D5200314300509B91062
:100A9F00020404B9080104A2D52006025001042063
:100AAF0002689202B518005034C0E07F203003195D
:100ABF007F30A20272067205500F120AECC202C2F8
:100ACF0006C205C2087F30800F300503E9C0E0126F
:100ADF00083B300503D0E0F9D0E0B518CC3005174E
:100AEF007F30B9100C12083B7F583004077F788095
:100AFF0003B9080312083B3002057F2D02083B7F24
:100B0F00202008F87F2B2006F322920280CF286E38
:100B1F00756C6C2900D2011208003001F8C20178FF
:100B2F001830D50108F60208A62D5043495812086F
:100B3F00002403B405004001E4900B389312082CF5
:0D0B4F00743A12082CD20375180402098BA9
:100D7200BB010CE58229F582E5833AF583E0225036
:100D820006E92582F8E622BBFE06E92582F8E22280
:0D0D9200E58229F582E5833AF583E493229A
:100D9F00BB010689828A83F0225002F722BBFE0133
:020DAF00F3222D
:100DB100FAE6FB0808E6F925F0F618E6CA3AF62243
:100DC100D083D082F8E4937012740193700DA3A3C1
:100DD10093F8740193F5828883E4737402936860D5
:060DE100EFA3A3A380DFD5
:100EE600EFB40A07740D120EF1740A309811A8991E
:100EF600B8130CC2983098FDA899C298B811F6306C
:070F060099FDC299F5992243
:00000001FF
